:1000000019C028C027C026C025C024C023C022C0D4
:1000100021C020C01FC01EC01DC01CC01BC01AC0F4
:1000200019C018C066C016C015C014C013C012C0D5
:1000300011C010C011241FBECFEFD4E0DEBFCDBF72
:1000400021E0A0E0B1E001C01D92A431B207E1F7C8
:100050001CD0B0C0D5CF9093C5008093C40088E970
:100060008093C1008EE08093C20081E090E008950B
:10007000E0ECF0E080818823ECF78091C6000895E1
:10008000559A84B1806C84B9089589E190E0E3DFEA
:10009000F7DF7894FFCFCF93DF9300D01F92CDB7D7
:1000A000DEB7FC018481803311F41BB815B884815C
:1000B000813309F45D9A8181898382818A83838176
:1000C0008B83CE01019651D0909308018093070154
:1000D0008B37910509F42E9A8091070190910801C0
:1000E000892B09F415B80F900F900F90DF91CF91E5
:1000F00008951F920F920FB60F9211242F933F93E2
:100100004F935F936F937F938F939F93AF93BF931F
:10011000EF93FF93ADDF80930901209100013091AF
:100120000101F901EE5FFE4F8083C90101969093B2
:10013000010180930001059739F482E091E0ABDF83
:100140001092010110920001FF91EF91BF91AF91C8
:100150009F918F917F916F915F914F913F912F91DF
:100160000F900FBE0F901F901895FC0188279927BC
:10017000E89421912032E9F3293010F02E30C8F3B1
:100180002B3239F02D3231F4689403C00BD0820F3A
:10019000911D219120532A30C8F31EF4909581952A
:1001A0009F4F08957AE0979F902D879F802D910D06
:0801B00011240895F894FFCF1B
:00000001FF
