S01B000046696E616C494D504C454D454E544154494F4E2E73726563F9
S113000019C033C032C031C071C02FC02EC02DC042
S11300102CC02BC02AC029C028C027C026C025C098
S113002024C023C0ADC121C020C01FC01EC01DC03C
S11300301CC01BC011241FBECFEFD4E0DEBFCDBF58
S113004011E0A0E0B1E0E8EDF4E002C005900D920B
S1130050A230B107D9F721E0A2E0B1E001C01D92BE
S1130060A232B207E1F722D135C2CACF559A84B180
S1130070806C84B908953B98ECE6F0E08081886058
S11300808083E8E6F0E080818260808388EC87BD2D
S11300900895E1E8F0E088E08083808182608083D5
S11300A00895569A84B5836884BD85B5816085BDFD
S11300B008959093C5008093C40088E98093C1009B
S11300C086E08093C20008958FB7F894209184004D
S11300D0309185008FBF822F932F08952FB7F89406
S11300E090938500809384002FBF08951F920F92F0
S11300F00FB60F9211242F933F934F935F936F93F7
S11301007F938F939F93AF93BF93EF93FF93DCDF22
S113011090930B0180930A0180E090E0DFDF8091EF
S11301200A0190910B01863821E0920708F43FC040
S11301302091040130910501280F391F30930501E6
S11301402093040140910801509109014F5F5F4FD2
S1130150509309014093080143305105F1F4409153
S1130160060150910701FA01EE0FFF1FE95EFE4FF1
S1130170ABEABAEA5CD19695879591838083109215
S113018005011092040110920901109208014F5FB9
S11301905F4F5093070140930601809106019091AF
S11301A00701059721F41092070110920601FF91AF
S11301B0EF91BF91AF919F918F917F916F915F91DB
S11301C04F913F912F910F900FBE0F901F90189554
S11301D0E0ECF0E0908195FFFDCF8093C600089598
S11301E0E0ECF0E080818823ECF78091C60008956C
S11301F0FC0120813181FB0140815181FC0151834B
S11302004083FB013183208308958F929F92AF92A4
S1130210BF92CF92DF92EF92FF920F931F93CF93EF
S1130220DF938C016B0181E0C81AD10839F531C024
S1130230B501E501FB01EE0FFF1FE00FF11F6F5F3A
S11302407F4FDB01AA0FBB1FA00FB11F208131819B
S11302508D919C9111978217930718F4BD01CF01DA
S1130260C7DF2196BE01C815D90520F38FEFE81A20
S1130270F80AC701EC14FD0438F00BC080E090E0EC
S1130280E12CF12CA12CB12C4601881A990A81F693
S1130290EDCFDF91CF911F910F91FF90EF90DF9001
S11302A0CF90BF90AF909F908F900895F2DEDEDEE6
S11302B089E190E0FEDEF5DEDEDE78941092140132
S11302C01092150110921601CBE1D1E00F2EFDE240
S11302D0CF2EF1E3DF2EEE24E394F12CF02D65E034
S11302E070E087E191E091DF288139813093010149
S11302F02093000140E050E0C701B6017DD0220FF9
S113030020930C018FE493EC0197F1F700C00000F7
S1130310E6CF0F931F93CF93DF9300D01F92CDB7F7
S1130320DEB78C01FC018081823719F480910C01C5
S11303304FDFF80180818737D9F4818189838281F5
S11303408A8383818B83CE0101969FD0282F392FF6
S113035030931301209312012B37310511F41BB88C
S113036015B88091120190911301892B09F45D9ABB
S11303700F900F900F90DF91CF911F910F910895DF
S11303801F920F920FB60F9211242F933F934F9306
S11303905F936F937F938F939F93AF93BF93EF93E9
S11303A0FF931EDF8093210120910201309103010C
S11303B0F901E35FFE4F8083C90101969093030125
S11303C080930201059739F48DE091E0A2DF109249
S11303D0030110920201FF91EF91BF91AF919F91A0
S11303E08F917F916F915F914F913F912F910F90DA
S11303F00FBE0F901F901895052E97FB16F40094CE
S113040006D057FD0CD01FD007FC09D07EF4909580
S11304108095709561957F4F8F4F9F4F08955095AC
S11304204095309521953F4F4F4F5F4F0895A29FC0
S1130430B001B39FC001A39F01D0B29F700D811D75
S11304401124911D0895A1E21A2EAA1BBB1BFD01C4
S11304500DC0AA1FBB1FEE1FFF1FA217B307E4079F
S1130460F50720F0A21BB30BE40BF50B661F771FF7
S1130470881F991F1A9469F76095709580959095D7
S11304809B01AC01BD01CF010895FC018827992788
S1130490E89421912032E9F3293010F02E30C8F38A
S11304A02B3239F02D3231F4689403C00BD0820F13
S11304B0911D219120532A30C8F31EF49095819503
S11304C09F4F08957AE0979F902D879F802D910DDF
S10B04D011240895F894FFCFF4
S10504D801001D
S9030000FC
