:1000000019C028C027C026C087C024C023C022C072
:1000100021C020C01FC01EC01DC01CC01BC01AC0F4
:1000200019C018C017C016C015C014C013C012C024
:1000300011C010C011241FBECFEFD4E0DEBFCDBF72
:1000400021E0A0E0B1E001C01D92AE31B207E1F7BE
:100050003BD1F8C1D5CF559A84B1806C84B908954D
:100060003B98ECE6F0E0808188608083E8E6F0E091
:100070008081826080838DEF87BD8AE592E6A2E071
:10008000B0E080930C0190930D01A0930E01B0930A
:100090000F0187B5893C90F03C98ECE6F0E0808158
:1000A000806180838DE291E3A1E0B0E080930C0158
:1000B00090930D01A0930E01B0930F010895E1E814
:1000C000F0E088E080838081826080830895569A82
:1000D00084B5836884BD85B5816085BD089590939E
:1000E000C5008093C40088E98093C10086E08093B6
:1000F000C20008958FB7F894209184003091850054
:100100008FBF822F932F08952FB7F8949093850077
:10011000809384002FBF08951F920F920FB60F9205
:1001200011242F933F934F935F936F937F938F93FC
:100130009F93AF93BF93EF93FF93DCDF90930901FD
:100140008093080180E090E0DFDF809108019091CA
:100150000901863821E0920708F43FC0209102018E
:1001600030910301280F391F3093030120930201BE
:1001700040910601509107014F5F5F4F5093070177
:100180004093060143305105F1F440910401509130
:100190000501FA01EE0FFF1FEC5EFE4FABEABAEA73
:1001A00002D19695879591838083109203011092D6
:1001B000020110920701109206014F5F5F4F5093AA
:1001C0000501409304018091040190910501059778
:1001D00021F41092050110920401FF91EF91BF915B
:1001E000AF919F918F917F916F915F914F913F91CF
:1001F0002F910F900FBE0F901F901895E0ECF0E03C
:10020000908195FFFDCF8093C6000895FC01208169
:100210003181FB0140815181FC0151834083FB010D
:100220003183208308958F929F92AF92BF92CF9295
:10023000DF92EF92FF920F931F93CF93DF938C0186
:100240006B0181E0C81AD10839F531C0B501E5016B
:10025000FB01EE0FFF1FE00FF11F6F5F7F4FDB0110
:10026000AA0FBB1FA00FB11F208131818D919C91DE
:1002700011978217930718F4BD01CF01C7DF2196AC
:10028000BE01C815D90520F38FEFE81AF80AC70197
:10029000EC14FD0438F00BC080E090E0E12CF12C70
:1002A000A12CB12C4601881A990A81F6EDCFDF9175
:1002B000CF911F910F91FF90EF90DF90CF90BF9063
:1002C000AF909F908F900895FADEC5DE89E190E0AF
:1002D00006DFFDDEC5DE7894109210011092110148
:1002E000109212011092130108E111E00F2EF4E1B7
:1002F000EF2EF1E0FF2EF02D65E070E084E191E05B
:1003000092DFF801208131813093010120930001B7
:1003100040E050E060910C0170910D0180910E0160
:1003200090910F011ED020930A0130930B014AE0F7
:1003300050E060E171E0822F932F41D0C0E1D1E025
:1003400089915CDFCE15DF05D9F780E257DFFFE347
:100350002DE083E0F15020408040E1F700C0000034
:10036000CBCFA1E21A2EAA1BBB1BFD010DC0AA1FF9
:10037000BB1FEE1FFF1FA217B307E407F50720F00E
:10038000A21BB30BE40BF50B661F771F881F991F89
:100390001A9469F760957095809590959B01AC01D2
:1003A000BD01CF010895A29FB001B39FC001A39FDB
:1003B00001D0B29F700D811D1124911D0895FB0184
:1003C0009F01E8944230BCF04532ACF44A3029F445
:1003D00097FB1EF4909581959F4F642F77271ED031
:1003E000805D8A330CF0895D8193CB010097A9F77A
:1003F00016F45DE251931082C90100C0DC01FC01DA
:10040000672F71917723E1F7329704C07C916D9348
:1004100070836291AE17BF07C8F30895AA1BBB1B78
:1004200051E107C0AA1FBB1FA617B70710F0A61BF4
:10043000B70B881F991F5A95A9F780959095BC0115
:08044000CD010895F894FFCFEF
:00000001FF
