S01200005465737444494D4D45522E73726563B4
S113000019C028C027C026C026C024C023C022C0CF
S113001021C020C01FC01EC01DC01CC01BC01AC0F0
S113002019C018C017C016C015C014C013C012C020
S113003011C010C011241FBECFEFD4E0DEBFCDBF6E
S113004021E0A0E0B1E001C01D92A430B207E1F7C5
S1130050AAD0ADC0D5CF1F920F920FB60F92112424
S11300608F939F9386B1887190E095958795959528
S113007087959595879580930201813011F130F031
S11300808230D1F1833009F06CC051C080910301FA
S1130090823051F480910001909101010196909376
S11300A001018093000109C0809100019091010138
S11300B0019790930101809300012E982F985D98E9
S11300C050C08091030181110AC080910001909178
S11300D001010196909301018093000109C0809170
S11300E00001909101010197909301018093000117
S11300F02E982F985D9A35C080910301833051F476
S113010080910001909101010196909301018093E7
S1130110000109C080910001909101010197909321
S11301200101809300012E982F9A5D981AC0809146
S11301300301813051F480910001909101010196F5
S1130140909301018093000109C080910001909176
S11301500101019790930101809300012E9A2F9839
S11301605D9880910201809303019F918F910F907C
S11301700FBE0F901F901895559A84B1806C84B966
S113018081E090E0089587B1877E87B9ECE6F0E0DE
S1130190808188618083E8E6F0E0808182608083EA
S11301A081E090E00895E8DFEEDF7894FFCFF894E3
S10501B0FFCF7B
S9030000FC
