:1000000019C028C027C026C026C024C023C022C0D3
:1000100021C020C01FC01EC01DC01CC01BC01AC0F4
:1000200019C018C017C016C015C014C013C012C024
:1000300011C010C011241FBECFEFD4E0DEBFCDBF72
:1000400021E0A0E0B1E001C01D92A130B207E1F7CC
:1000500035D038C0D5CF1F920F920FB60F92112412
:100060008F9386B18295817080930001813029F44D
:1000700085B1806C85B95D9A04C085B18F7385B9EF
:100080005D988F910F900FBE0F901F901895559A05
:1000900084B1806C84B981E090E0089587B1877E57
:1000A00087B9ECE6F0E0808188618083E8E6F0E0E3
:1000B00080818260808381E090E00895E8DFEEDF58
:0800C0007894FFCFF894FFCF04
:00000001FF
