:1000000019C028C027C026C026C024C023C022C0D3
:1000100021C020C01FC01EC01DC01CC01BC01AC0F4
:1000200019C018C017C016C015C014C013C012C024
:1000300011C010C011241FBECFEFD4E0DEBFCDBF72
:1000400021E0A0E0B1E001C01D92A430B207E1F7C9
:10005000CFD0E7C0D5CF1F920F920FB60F921124C9
:100060008F939F9386B1887190E09595879595952C
:1000700087959595879580930201813019F130F02D
:100080008230E1F1833009F070C054C080910301E7
:10009000823061F42F982E9A809100019091010195
:1000A000019690930101809300015FC02F9A2E98D2
:1000B000809100019091010101979093010180933B
:1000C000000153C08091030181110CC02F982E9A1A
:1000D000809100019091010101969093010180931C
:1000E000000143C02F9A2E98809100019091010148
:1000F0000197909301018093000137C08091030123
:10010000833061F42F982E9A809100019091010123
:100110000196909301018093000127C02F9A2E9899
:1001200080910001909101010197909301018093CA
:1001300000011BC080910301813061F42F982E9A39
:1001400080910001909101010196909301018093AB
:1001500000010BC02F9A2E9880910001909101010F
:10016000019790930101809300018091000190918B
:10017000010199232CF410920101109200010AC090
:100180008F3F910539F034F08FEF90E090930101AB
:100190008093000180910201809303019F918F91D0
:1001A0000F900FBE0F901F901895559A84B1806CD8
:1001B00084B981E090E0089587B1877E87B9ECE645
:1001C000F0E0808188618083E8E6F0E080818260F1
:1001D000808381E090E00895569A84B5836884BD59
:1001E00085B5816085BD81E090E0089587BD089563
:1001F000E3DFF2DFDADF7894809100019091010172
:10020000F5DF8091000190910101893C91050CF08E
:100210005D9A80910001909101010A976CF75D98B9
:06022000EBCFF894FFCFC4
:00000001FF
