:1000000019C028C027C026C025C024C023C022C0D4
:1000100021C020C01FC01EC01DC01CC01BC01AC0F4
:1000200019C018C032C016C015C014C013C012C009
:1000300011C010C011241FBECFEFD4E0DEBFCDBF72
:1000400021E0A0E0B1E001C01D92A130B207E1F7CC
:100050000FD041C0D5CF9093C5008093C40088E9EC
:100060008093C1008EE08093C20081E090E008950B
:1000700089E190E0F0DF7894FFCF8093C600089587
:100080008091C6008093000108951F920F920FB6D1
:100090000F9211242F933F934F935F936F937F930E
:1000A0008F939F93AF93BF93EF93FF93E9DF809379
:1000B0000001E3DFFF91EF91BF91AF919F918F918D
:1000C0007F916F915F914F913F912F910F900FBE54
:0A00D0000F901F901895F894FFCFD1
:00000001FF
