:1000000019C020C01FC01EC01EC01CC01BC01AC00B
:1000100019C018C017C016C015C014C013C012C034
:1000200011C010C00FC00EC00DC00CC00BC00AC064
:1000300009C008C011241FBECFEFD4E0DEBFCDBF82
:1000400029D02CC0DDCF1F920F920FB60F92112432
:100050008F932E9A8BB1806C8BB98F910F900FBEBE
:100060000F901F901895559A84B1806C84B981E0E7
:1000700090E0089587B1877E87B9ECE6F0E0808153
:1000800088618083E8E6F0E080818260808381E09F
:1000900090E00895E8DFEEDF7894FFCFF894FFCF8B
:00000001FF
