S0140000746573744C4F4F504241434B2E7372656305
S113000019C033C032C031C030C02FC02EC02DC083
S11300102CC02BC02AC029C028C027C026C025C098
S113002024C023C022C021C071C01FC01EC01DC077
S11300301CC01BC011241FBECFEFD4E0DEBFCDBF58
S113004011E0A0E0B1E0E2E6F1E002C005900D921B
S1130050AA32B107D9F721E0AAE2B1E001C01D92AA
S1130060AD3AB207E1F741D07AC0CACF9093C50048
S11300708093C40088E58093C10086E08093C20029
S113008081E090E0089590912A01E92FF0E0E35D8A
S1130090FE4F80839F5F1AF090932A010895109277
S11300A02A0108951F93CF93DF93EC0110E006C05B
S11300B0FE01E80FF91F8081E6DF1F5F812F90E0CA
S11300C0EC2FFD2FDF010D900020E9F71197AE1BF7
S11300D0BF0B8A179B0760F38091C00085FD1092C7
S11300E0C600DF91CF911F91089589E190E0BEDFB2
S11300F0789480E091E0D6DF2FE38DE093E0215007
S113010080409040E1F700C00000F3CF1F920F92AF
S11301100FB60F9211248F939F93EF93FF93E09167
S11301202B0180912A01E81789F0F0E0E35DFE4F8E
S113013080818093C60090912B01892F8F5F1AF0E4
S113014080932B0103C09E5F90932B01FF91EF914D
S11301509F918F910F900FBE0F901F901895F89458
S1050160FFCFCB
S11301624D656420656E20656E6B656C2074756CDC
S11301726C6970616E2070E52062656DE4726B6576
S10D01826C736564616E200A0D00C1
S9030000FC
